{
  "contractName": "SampleToken",
  "abi": [
    {
      "constant": true,
      "inputs": [],
      "name": "totalSupply",
      "outputs": [
        {
          "name": "",
          "type": "uint256"
        }
      ],
      "payable": false,
      "stateMutability": "view",
      "type": "function"
    },
    {
      "inputs": [],
      "payable": false,
      "stateMutability": "nonpayable",
      "type": "constructor"
    }
  ],
  "bytecode": "0x608060405234801561001057600080fd5b50620f4240600081905550609e806100296000396000f300608060405260043610603f576000357c0100000000000000000000000000000000000000000000000000000000900463ffffffff16806318160ddd146044575b600080fd5b348015604f57600080fd5b506056606c565b6040518082815260200191505060405180910390f35b600054815600a165627a7a723058200edfeafb333390609b920f536aff46ea82409fa9e6a6c3633aee075fb10ba7ec0029",
  "source": "pragma solidity ^0.4.2;\n\ncontract SampleToken {\n\n  uint256 public totalSupply;\n  \n  function SampleToken () public {\n    totalSupply = 1000000;\n  }\n}\n",
  "sourcePath": "/Users/yglm/Documents/Development/Ethereum/DappUniversity/Tokens/SampleToken/contracts/SampleToken.sol",
  "compiler": {
    "name": "solc",
    "version": "0.4.24+commit.e67f0147.Emscripten.clang"
  },
  "schemaVersion": "2.0.1",
  "updatedAt": "2018-09-21T14:40:37.985Z"
}